{
  "contractName": "Items",
  "abi": [
    {
      "constant": true,
      "inputs": [
        {
          "name": "",
          "type": "uint256"
        }
      ],
      "name": "raisedItems",
      "outputs": [
        {
          "name": "id",
          "type": "uint256"
        },
        {
          "name": "resolved",
          "type": "bool"
        },
        {
          "name": "seller",
          "type": "string"
        },
        {
          "name": "customer",
          "type": "string"
        },
        {
          "name": "name_of_item",
          "type": "string"
        },
        {
          "name": "quantity",
          "type": "int256"
        }
      ],
      "payable": false,
      "stateMutability": "view",
      "type": "function",
      "signature": "0x049f9ee4"
    },
    {
      "constant": true,
      "inputs": [],
      "name": "raisedItemsCount",
      "outputs": [
        {
          "name": "",
          "type": "uint256"
        }
      ],
      "payable": false,
      "stateMutability": "view",
      "type": "function",
      "signature": "0x4d783c77"
    },
    {
      "inputs": [],
      "payable": false,
      "stateMutability": "nonpayable",
      "type": "constructor",
      "signature": "constructor"
    },
    {
      "constant": false,
      "inputs": [
        {
          "name": "_seller",
          "type": "string"
        },
        {
          "name": "_name_of_item",
          "type": "string"
        },
        {
          "name": "_quantity",
          "type": "int256"
        }
      ],
      "name": "createHaveRequest",
      "outputs": [],
      "payable": false,
      "stateMutability": "nonpayable",
      "type": "function",
      "signature": "0xf48b6c16"
    },
    {
      "constant": false,
      "inputs": [
        {
          "name": "_raisedItemId",
          "type": "uint256"
        },
        {
          "name": "customer",
          "type": "string"
        }
      ],
      "name": "resolveHaveRequest",
      "outputs": [],
      "payable": false,
      "stateMutability": "nonpayable",
      "type": "function",
      "signature": "0x21669a77"
    },
    {
      "constant": false,
      "inputs": [
        {
          "name": "_buyer",
          "type": "string"
        },
        {
          "name": "_name_of_item",
          "type": "string"
        },
        {
          "name": "_quantity",
          "type": "int256"
        }
      ],
      "name": "createNeedRequest",
      "outputs": [],
      "payable": false,
      "stateMutability": "nonpayable",
      "type": "function",
      "signature": "0xaffe68dd"
    },
    {
      "constant": false,
      "inputs": [
        {
          "name": "_raisedItemId",
          "type": "uint256"
        },
        {
          "name": "seller",
          "type": "string"
        }
      ],
      "name": "resolveNeedRequest",
      "outputs": [],
      "payable": false,
      "stateMutability": "nonpayable",
      "type": "function",
      "signature": "0x2295b9ab"
    }
  ],
  "bytecode": "0x60806040523480156200001157600080fd5b50620000c0606060405190810160405280602a81526020017f307835613961304166343038303643303932326638303330393438353636356481526020017f64373335333263434562000000000000000000000000000000000000000000008152506040805190810160405280600881526020017f706f7461746f6573000000000000000000000000000000000000000000000000815250606462000174640100000000026401000000009004565b6200016e606060405190810160405280602a81526020017f307835613961304166343038303643303932326638303330393438353636356481526020017f64373335333263434562000000000000000000000000000000000000000000008152506040805190810160405280600581526020017f6f6e696f6e000000000000000000000000000000000000000000000000000000815250603262000276640100000000026401000000009004565b62000427565b60016000815480929190600101919050555060c0604051908101604052806001548152602001600015158152602001848152602001602060405190810160405280600081525081526020018381526020018281525060008060015481526020019081526020016000206000820151816000015560208201518160010160006101000a81548160ff02191690831515021790555060408201518160020190805190602001906200022592919062000378565b5060608201518160030190805190602001906200024492919062000378565b5060808201518160040190805190602001906200026392919062000378565b5060a08201518160050155905050505050565b60016000815480929190600101919050555060c0604051908101604052806001548152602001600015158152602001602060405190810160405280600081525081526020018481526020018381526020018281525060008060015481526020019081526020016000206000820151816000015560208201518160010160006101000a81548160ff02191690831515021790555060408201518160020190805190602001906200032792919062000378565b5060608201518160030190805190602001906200034692919062000378565b5060808201518160040190805190602001906200036592919062000378565b5060a08201518160050155905050505050565b828054600181600116156101000203166002900490600052602060002090601f016020900481019282601f10620003bb57805160ff1916838001178555620003ec565b82800160010185558215620003ec579182015b82811115620003eb578251825591602001919060010190620003ce565b5b509050620003fb9190620003ff565b5090565b6200042491905b808211156200042057600081600090555060010162000406565b5090565b90565b610d7f80620004376000396000f3fe608060405260043610610078576000357c0100000000000000000000000000000000000000000000000000000000900463ffffffff168063049f9ee41461007d57806321669a77146102225780632295b9ab146102f45780634d783c77146103c6578063affe68dd146103f1578063f48b6c161461055a575b600080fd5b34801561008957600080fd5b506100b6600480360360208110156100a057600080fd5b81019080803590602001909291905050506106c3565b6040518087815260200186151515158152602001806020018060200180602001858152602001848103845288818151815260200191508051906020019080838360005b838110156101145780820151818401526020810190506100f9565b50505050905090810190601f1680156101415780820380516001836020036101000a031916815260200191505b50848103835287818151815260200191508051906020019080838360005b8381101561017a57808201518184015260208101905061015f565b50505050905090810190601f1680156101a75780820380516001836020036101000a031916815260200191505b50848103825286818151815260200191508051906020019080838360005b838110156101e05780820151818401526020810190506101c5565b50505050905090810190601f16801561020d5780820380516001836020036101000a031916815260200191505b50995050505050505050505060405180910390f35b34801561022e57600080fd5b506102f26004803603604081101561024557600080fd5b81019080803590602001909291908035906020019064010000000081111561026c57600080fd5b82018360208201111561027e57600080fd5b803590602001918460018302840111640100000000831117156102a057600080fd5b91908080601f016020809104026020016040519081016040528093929190818152602001838380828437600081840152601f19601f8201169050808301925050505050505091929192905050506108d4565b005b34801561030057600080fd5b506103c46004803603604081101561031757600080fd5b81019080803590602001909291908035906020019064010000000081111561033e57600080fd5b82018360208201111561035057600080fd5b8035906020019184600183028401116401000000008311171561037257600080fd5b91908080601f016020809104026020016040519081016040528093929190818152602001838380828437600081840152601f19601f820116905080830192505050505050509192919290505050610982565b005b3480156103d257600080fd5b506103db610a30565b6040518082815260200191505060405180910390f35b3480156103fd57600080fd5b506105586004803603606081101561041457600080fd5b810190808035906020019064010000000081111561043157600080fd5b82018360208201111561044357600080fd5b8035906020019184600183028401116401000000008311171561046557600080fd5b91908080601f016020809104026020016040519081016040528093929190818152602001838380828437600081840152601f19601f820116905080830192505050505050509192919290803590602001906401000000008111156104c857600080fd5b8201836020820111156104da57600080fd5b803590602001918460018302840111640100000000831117156104fc57600080fd5b91908080601f016020809104026020016040519081016040528093929190818152602001838380828437600081840152601f19601f82011690508083019250505050505050919291929080359060200190929190505050610a36565b005b34801561056657600080fd5b506106c16004803603606081101561057d57600080fd5b810190808035906020019064010000000081111561059a57600080fd5b8201836020820111156105ac57600080fd5b803590602001918460018302840111640100000000831117156105ce57600080fd5b91908080601f016020809104026020016040519081016040528093929190818152602001838380828437600081840152601f19601f8201169050808301925050505050505091929192908035906020019064010000000081111561063157600080fd5b82018360208201111561064357600080fd5b8035906020019184600183028401116401000000008311171561066557600080fd5b91908080601f016020809104026020016040519081016040528093929190818152602001838380828437600081840152601f19601f82011690508083019250505050505050919291929080359060200190929190505050610b32565b005b60006020528060005260406000206000915090508060000154908060010160009054906101000a900460ff1690806002018054600181600116156101000203166002900480601f0160208091040260200160405190810160405280929190818152602001828054600181600116156101000203166002900480156107885780601f1061075d57610100808354040283529160200191610788565b820191906000526020600020905b81548152906001019060200180831161076b57829003601f168201915b505050505090806003018054600181600116156101000203166002900480601f0160208091040260200160405190810160405280929190818152602001828054600181600116156101000203166002900480156108265780601f106107fb57610100808354040283529160200191610826565b820191906000526020600020905b81548152906001019060200180831161080957829003601f168201915b505050505090806004018054600181600116156101000203166002900480601f0160208091040260200160405190810160405280929190818152602001828054600181600116156101000203166002900480156108c45780601f10610899576101008083540402835291602001916108c4565b820191906000526020600020905b8154815290600101906020018083116108a757829003601f168201915b5050505050908060050154905086565b6000151560008084815260200190815260200160002060010160009054906101000a900460ff16151514151561090957600080fd5b60008211801561091b57506001548211155b151561092657600080fd5b600160008084815260200190815260200160002060010160006101000a81548160ff02191690831515021790555080600080848152602001908152602001600020600301908051906020019061097d929190610c2e565b505050565b6000151560008084815260200190815260200160002060010160009054906101000a900460ff1615151415156109b757600080fd5b6000821180156109c957506001548211155b15156109d457600080fd5b600160008084815260200190815260200160002060010160006101000a81548160ff021916908315150217905550806000808481526020019081526020016000206002019080519060200190610a2b929190610c2e565b505050565b60015481565b60016000815480929190600101919050555060c0604051908101604052806001548152602001600015158152602001602060405190810160405280600081525081526020018481526020018381526020018281525060008060015481526020019081526020016000206000820151816000015560208201518160010160006101000a81548160ff0219169083151502179055506040820151816002019080519060200190610ae5929190610cae565b506060820151816003019080519060200190610b02929190610cae565b506080820151816004019080519060200190610b1f929190610cae565b5060a08201518160050155905050505050565b60016000815480929190600101919050555060c0604051908101604052806001548152602001600015158152602001848152602001602060405190810160405280600081525081526020018381526020018281525060008060015481526020019081526020016000206000820151816000015560208201518160010160006101000a81548160ff0219169083151502179055506040820151816002019080519060200190610be1929190610cae565b506060820151816003019080519060200190610bfe929190610cae565b506080820151816004019080519060200190610c1b929190610cae565b5060a08201518160050155905050505050565b828054600181600116156101000203166002900490600052602060002090601f016020900481019282601f10610c6f57805160ff1916838001178555610c9d565b82800160010185558215610c9d579182015b82811115610c9c578251825591602001919060010190610c81565b5b509050610caa9190610d2e565b5090565b828054600181600116156101000203166002900490600052602060002090601f016020900481019282601f10610cef57805160ff1916838001178555610d1d565b82800160010185558215610d1d579182015b82811115610d1c578251825591602001919060010190610d01565b5b509050610d2a9190610d2e565b5090565b610d5091905b80821115610d4c576000816000905550600101610d34565b5090565b9056fea165627a7a72305820b0fafb83c7e2bdf504349309026bb1ab26d45b967f68c8d9b97baab1bf7ecef40029",
  "source": "pragma solidity ^0.5.0;\n\ncontract Items {\n    // Model of a raiseGood\n    struct RaiseItem {\n        uint id;\n        bool resolved;\n        string seller;\n        string customer;\n        string name_of_item;\n        int quantity;\n    }\n\n    // Store RaiseItems\n    // Fetch RaiseItems\n    mapping(uint => RaiseItem) public raisedItems;\n\n    //Store raisedItems Count\n    uint public raisedItemsCount;\n\n    //Constructor\n    constructor() public {\n        createHaveRequest(\"0x5a9a0Af40806C0922f80309485665dd73532cCEb\", \"potatoes\", 100);\n        createNeedRequest(\"0x5a9a0Af40806C0922f80309485665dd73532cCEb\", \"onion\", 50);\n    }\n\n    // This will create a request where the seller can say that he has\n    // x amount of good with him\n    function createHaveRequest(string memory _seller, string memory _name_of_item, int  _quantity) public {\n        raisedItemsCount ++;\n        raisedItems[raisedItemsCount] = RaiseItem(raisedItemsCount, false, _seller, \"\", _name_of_item, _quantity);\n    }\n\n    // To confirm the deal will the seller\n    function resolveHaveRequest(uint _raisedItemId, string memory customer) public {\n        // The transaction is not complete\n        require(raisedItems[_raisedItemId].resolved == false);\n\n        // The raisedItemId is valid\n        require(_raisedItemId > 0 && _raisedItemId <= raisedItemsCount);\n        \n        raisedItems[_raisedItemId].resolved = true;\n        raisedItems[_raisedItemId].customer = customer;\n    }\n\n    // A customer will raise a request if he need some good\n    function createNeedRequest(string memory _buyer, string memory _name_of_item, int _quantity) public {\n        raisedItemsCount ++;\n        raisedItems[raisedItemsCount] = RaiseItem(raisedItemsCount, false,\"\", _buyer, _name_of_item, _quantity);\n    }\n\n    // A seller confirms the deal with a customer\n    function resolveNeedRequest(uint _raisedItemId, string memory seller) public {\n        // The transaction is not complete\n        require(raisedItems[_raisedItemId].resolved == false);\n\n        // The raisedItemId is valid\n        require(_raisedItemId > 0 && _raisedItemId <= raisedItemsCount);\n\n        raisedItems[_raisedItemId].resolved = true;\n        raisedItems[_raisedItemId].seller = seller;        \n    }\n}",
  "sourcePath": "/home/nitya/hackathon/contracts/Items.sol",
  "compiler": {
    "name": "solc",
    "version": "0.5.0+commit.1d4f565a.Emscripten.clang"
  },
  "schemaVersion": "3.0.6",
  "updatedAt": "2019-03-30T00:16:59.795Z",
  "devdoc": {
    "methods": {}
  },
  "userdoc": {
    "methods": {}
  }
}