{
  "contractName": "Items",
  "abi": [
    {
      "constant": true,
      "inputs": [
        {
          "name": "",
          "type": "uint256"
        }
      ],
      "name": "raisedItems",
      "outputs": [
        {
          "name": "id",
          "type": "uint256"
        },
        {
          "name": "resolved",
          "type": "bool"
        },
        {
          "name": "seller",
          "type": "string"
        },
        {
          "name": "customer",
          "type": "string"
        },
        {
          "name": "name_of_item",
          "type": "string"
        },
        {
          "name": "price",
          "type": "int256"
        },
        {
          "name": "quantity",
          "type": "int256"
        }
      ],
      "payable": false,
      "stateMutability": "view",
      "type": "function",
      "signature": "0x049f9ee4"
    },
    {
      "constant": true,
      "inputs": [],
      "name": "raisedItemsCount",
      "outputs": [
        {
          "name": "",
          "type": "uint256"
        }
      ],
      "payable": false,
      "stateMutability": "view",
      "type": "function",
      "signature": "0x4d783c77"
    },
    {
      "inputs": [],
      "payable": false,
      "stateMutability": "nonpayable",
      "type": "constructor",
      "signature": "constructor"
    },
    {
      "constant": false,
      "inputs": [
        {
          "name": "_seller",
          "type": "string"
        },
        {
          "name": "_name_of_item",
          "type": "string"
        },
        {
          "name": "_price",
          "type": "int256"
        },
        {
          "name": "_quantity",
          "type": "int256"
        }
      ],
      "name": "createHaveRequest",
      "outputs": [],
      "payable": false,
      "stateMutability": "nonpayable",
      "type": "function",
      "signature": "0x5ec140f9"
    },
    {
      "constant": false,
      "inputs": [
        {
          "name": "_raisedItemId",
          "type": "uint256"
        },
        {
          "name": "customer",
          "type": "string"
        }
      ],
      "name": "resolveHaveRequest",
      "outputs": [],
      "payable": false,
      "stateMutability": "nonpayable",
      "type": "function",
      "signature": "0x21669a77"
    },
    {
      "constant": false,
      "inputs": [
        {
          "name": "_buyer",
          "type": "string"
        },
        {
          "name": "_name_of_item",
          "type": "string"
        },
        {
          "name": "_price",
          "type": "int256"
        },
        {
          "name": "_quantity",
          "type": "int256"
        }
      ],
      "name": "createNeedRequest",
      "outputs": [],
      "payable": false,
      "stateMutability": "nonpayable",
      "type": "function",
      "signature": "0xdb0e8bc1"
    },
    {
      "constant": false,
      "inputs": [
        {
          "name": "_raisedItemId",
          "type": "uint256"
        },
        {
          "name": "seller",
          "type": "string"
        }
      ],
      "name": "resolveNeedRequest",
      "outputs": [],
      "payable": false,
      "stateMutability": "nonpayable",
      "type": "function",
      "signature": "0x2295b9ab"
    }
  ],
  "bytecode": "0x60806040523480156200001157600080fd5b50620000c3606060405190810160405280602a81526020017f307835613961304166343038303643303932326638303330393438353636356481526020017f64373335333263434562000000000000000000000000000000000000000000008152506040805190810160405280600881526020017f706f7461746f65730000000000000000000000000000000000000000000000008152506107d06064620002dd640100000000026401000000009004565b62000175606060405190810160405280602a81526020017f307835613961304166343038303643303932326638303330393438353636356481526020017f64373335333263434562000000000000000000000000000000000000000000008152506040805190810160405280600781526020017f63616262616765000000000000000000000000000000000000000000000000008152506175306103e8620002dd640100000000026401000000009004565b62000226606060405190810160405280602a81526020017f307835613961304166343038303643303932326638303330393438353636356481526020017f64373335333263434562000000000000000000000000000000000000000000008152506040805190810160405280600581526020017f6f6e696f6e0000000000000000000000000000000000000000000000000000008152506109c46032620003f0640100000000026401000000009004565b620002d7606060405190810160405280602a81526020017f307835613961304166343038303643303932326638303330393438353636356481526020017f64373335333263434562000000000000000000000000000000000000000000008152506040805190810160405280600681526020017f62616e616e610000000000000000000000000000000000000000000000000000815250612710601e620003f0640100000000026401000000009004565b620005b2565b60016000815480929190600101919050555060e0604051908101604052806001548152602001600015158152602001858152602001602060405190810160405280600081525081526020018481526020018381526020018281525060008060015481526020019081526020016000206000820151816000015560208201518160010160006101000a81548160ff02191690831515021790555060408201518160020190805190602001906200039492919062000503565b506060820151816003019080519060200190620003b392919062000503565b506080820151816004019080519060200190620003d292919062000503565b5060a0820151816005015560c0820151816006015590505050505050565b60016000815480929190600101919050555060e0604051908101604052806001548152602001600015158152602001602060405190810160405280600081525081526020018581526020018481526020018381526020018281525060008060015481526020019081526020016000206000820151816000015560208201518160010160006101000a81548160ff0219169083151502179055506040820151816002019080519060200190620004a792919062000503565b506060820151816003019080519060200190620004c692919062000503565b506080820151816004019080519060200190620004e592919062000503565b5060a0820151816005015560c0820151816006015590505050505050565b828054600181600116156101000203166002900490600052602060002090601f016020900481019282601f106200054657805160ff191683800117855562000577565b8280016001018555821562000577579182015b828111156200057657825182559160200191906001019062000559565b5b5090506200058691906200058a565b5090565b620005af91905b80821115620005ab57600081600090555060010162000591565b5090565b90565b610dc280620005c26000396000f3fe608060405260043610610078576000357c0100000000000000000000000000000000000000000000000000000000900463ffffffff168063049f9ee41461007d57806321669a77146102295780632295b9ab146102fb5780634d783c77146103cd5780635ec140f9146103f8578063db0e8bc11461056b575b600080fd5b34801561008957600080fd5b506100b6600480360360208110156100a057600080fd5b81019080803590602001909291905050506106de565b6040518088815260200187151515158152602001806020018060200180602001868152602001858152602001848103845289818151815260200191508051906020019080838360005b8381101561011a5780820151818401526020810190506100ff565b50505050905090810190601f1680156101475780820380516001836020036101000a031916815260200191505b50848103835288818151815260200191508051906020019080838360005b83811015610180578082015181840152602081019050610165565b50505050905090810190601f1680156101ad5780820380516001836020036101000a031916815260200191505b50848103825287818151815260200191508051906020019080838360005b838110156101e65780820151818401526020810190506101cb565b50505050905090810190601f1680156102135780820380516001836020036101000a031916815260200191505b509a505050505050505050505060405180910390f35b34801561023557600080fd5b506102f96004803603604081101561024c57600080fd5b81019080803590602001909291908035906020019064010000000081111561027357600080fd5b82018360208201111561028557600080fd5b803590602001918460018302840111640100000000831117156102a757600080fd5b91908080601f016020809104026020016040519081016040528093929190818152602001838380828437600081840152601f19601f8201169050808301925050505050505091929192905050506108f5565b005b34801561030757600080fd5b506103cb6004803603604081101561031e57600080fd5b81019080803590602001909291908035906020019064010000000081111561034557600080fd5b82018360208201111561035757600080fd5b8035906020019184600183028401116401000000008311171561037957600080fd5b91908080601f016020809104026020016040519081016040528093929190818152602001838380828437600081840152601f19601f8201169050808301925050505050505091929192905050506109a3565b005b3480156103d957600080fd5b506103e2610a51565b6040518082815260200191505060405180910390f35b34801561040457600080fd5b506105696004803603608081101561041b57600080fd5b810190808035906020019064010000000081111561043857600080fd5b82018360208201111561044a57600080fd5b8035906020019184600183028401116401000000008311171561046c57600080fd5b91908080601f016020809104026020016040519081016040528093929190818152602001838380828437600081840152601f19601f820116905080830192505050505050509192919290803590602001906401000000008111156104cf57600080fd5b8201836020820111156104e157600080fd5b8035906020019184600183028401116401000000008311171561050357600080fd5b91908080601f016020809104026020016040519081016040528093929190818152602001838380828437600081840152601f19601f8201169050808301925050505050505091929192908035906020019092919080359060200190929190505050610a57565b005b34801561057757600080fd5b506106dc6004803603608081101561058e57600080fd5b81019080803590602001906401000000008111156105ab57600080fd5b8201836020820111156105bd57600080fd5b803590602001918460018302840111640100000000831117156105df57600080fd5b91908080601f016020809104026020016040519081016040528093929190818152602001838380828437600081840152601f19601f8201169050808301925050505050505091929192908035906020019064010000000081111561064257600080fd5b82018360208201111561065457600080fd5b8035906020019184600183028401116401000000008311171561067657600080fd5b91908080601f016020809104026020016040519081016040528093929190818152602001838380828437600081840152601f19601f8201169050808301925050505050505091929192908035906020019092919080359060200190929190505050610b64565b005b60006020528060005260406000206000915090508060000154908060010160009054906101000a900460ff1690806002018054600181600116156101000203166002900480601f0160208091040260200160405190810160405280929190818152602001828054600181600116156101000203166002900480156107a35780601f10610778576101008083540402835291602001916107a3565b820191906000526020600020905b81548152906001019060200180831161078657829003601f168201915b505050505090806003018054600181600116156101000203166002900480601f0160208091040260200160405190810160405280929190818152602001828054600181600116156101000203166002900480156108415780601f1061081657610100808354040283529160200191610841565b820191906000526020600020905b81548152906001019060200180831161082457829003601f168201915b505050505090806004018054600181600116156101000203166002900480601f0160208091040260200160405190810160405280929190818152602001828054600181600116156101000203166002900480156108df5780601f106108b4576101008083540402835291602001916108df565b820191906000526020600020905b8154815290600101906020018083116108c257829003601f168201915b5050505050908060050154908060060154905087565b6000151560008084815260200190815260200160002060010160009054906101000a900460ff16151514151561092a57600080fd5b60008211801561093c57506001548211155b151561094757600080fd5b600160008084815260200190815260200160002060010160006101000a81548160ff02191690831515021790555080600080848152602001908152602001600020600301908051906020019061099e929190610c71565b505050565b6000151560008084815260200190815260200160002060010160009054906101000a900460ff1615151415156109d857600080fd5b6000821180156109ea57506001548211155b15156109f557600080fd5b600160008084815260200190815260200160002060010160006101000a81548160ff021916908315150217905550806000808481526020019081526020016000206002019080519060200190610a4c929190610c71565b505050565b60015481565b60016000815480929190600101919050555060e0604051908101604052806001548152602001600015158152602001858152602001602060405190810160405280600081525081526020018481526020018381526020018281525060008060015481526020019081526020016000206000820151816000015560208201518160010160006101000a81548160ff0219169083151502179055506040820151816002019080519060200190610b0c929190610cf1565b506060820151816003019080519060200190610b29929190610cf1565b506080820151816004019080519060200190610b46929190610cf1565b5060a0820151816005015560c0820151816006015590505050505050565b60016000815480929190600101919050555060e0604051908101604052806001548152602001600015158152602001602060405190810160405280600081525081526020018581526020018481526020018381526020018281525060008060015481526020019081526020016000206000820151816000015560208201518160010160006101000a81548160ff0219169083151502179055506040820151816002019080519060200190610c19929190610cf1565b506060820151816003019080519060200190610c36929190610cf1565b506080820151816004019080519060200190610c53929190610cf1565b5060a0820151816005015560c0820151816006015590505050505050565b828054600181600116156101000203166002900490600052602060002090601f016020900481019282601f10610cb257805160ff1916838001178555610ce0565b82800160010185558215610ce0579182015b82811115610cdf578251825591602001919060010190610cc4565b5b509050610ced9190610d71565b5090565b828054600181600116156101000203166002900490600052602060002090601f016020900481019282601f10610d3257805160ff1916838001178555610d60565b82800160010185558215610d60579182015b82811115610d5f578251825591602001919060010190610d44565b5b509050610d6d9190610d71565b5090565b610d9391905b80821115610d8f576000816000905550600101610d77565b5090565b9056fea165627a7a72305820249d7e0a54ad10dad82e01a0ec14f3b86efb65a83557b345aaa8ff98850b71b80029",
  "source": "pragma solidity ^0.5.0;\n\ncontract Items {\n    // Model of a raiseGood\n    struct RaiseItem {\n        uint id;\n        bool resolved;\n        string seller;\n        string customer;\n        string name_of_item;\n        int price;\n        int quantity;\n    }\n\n    // Store RaiseItems\n    // Fetch RaiseItems\n    mapping(uint => RaiseItem) public raisedItems;\n\n    //Store raisedItems Count\n    uint public raisedItemsCount;\n\n    //Constructor\n    constructor() public {\n        createHaveRequest(\"0x5a9a0Af40806C0922f80309485665dd73532cCEb\", \"potatoes\", 2000, 100);\n        createHaveRequest(\"0x5a9a0Af40806C0922f80309485665dd73532cCEb\", \"cabbage\", 30000, 1000);\n        createNeedRequest(\"0x5a9a0Af40806C0922f80309485665dd73532cCEb\", \"onion\", 2500,50);\n        createNeedRequest(\"0x5a9a0Af40806C0922f80309485665dd73532cCEb\", \"banana\", 10000,30);\n    }\n\n    // This will create a request where the seller can say that he has\n    // x amount of good with him\n    function createHaveRequest(string memory _seller, string memory _name_of_item, int _price, int  _quantity) public {\n        raisedItemsCount ++;\n        raisedItems[raisedItemsCount] = RaiseItem(raisedItemsCount, false, _seller, \"\", _name_of_item, _price, _quantity);\n    }\n\n    // To confirm the deal will the seller\n    function resolveHaveRequest(uint _raisedItemId, string memory customer) public {\n        // The transaction is not complete\n        require(raisedItems[_raisedItemId].resolved == false);\n\n        // The raisedItemId is valid\n        require(_raisedItemId > 0 && _raisedItemId <= raisedItemsCount);\n        \n        raisedItems[_raisedItemId].resolved = true;\n        raisedItems[_raisedItemId].customer = customer;\n    }\n\n    // A customer will raise a request if he need some good\n    function createNeedRequest(string memory _buyer, string memory _name_of_item, int _price, int _quantity) public {\n        raisedItemsCount ++;\n        raisedItems[raisedItemsCount] = RaiseItem(raisedItemsCount, false,\"\", _buyer, _name_of_item, _price, _quantity);\n    }\n\n    // A seller confirms the deal with a customer\n    function resolveNeedRequest(uint _raisedItemId, string memory seller) public {\n        // The transaction is not complete\n        require(raisedItems[_raisedItemId].resolved == false);\n\n        // The raisedItemId is valid\n        require(_raisedItemId > 0 && _raisedItemId <= raisedItemsCount);\n\n        raisedItems[_raisedItemId].resolved = true;\n        raisedItems[_raisedItemId].seller = seller;        \n    }\n}",
  "sourcePath": "/home/nitya/hackathon/contracts/Items.sol",
  "compiler": {
    "name": "solc",
    "version": "0.5.0+commit.1d4f565a.Emscripten.clang"
  },
  "schemaVersion": "3.0.6",
  "updatedAt": "2019-03-30T09:59:41.044Z",
  "devdoc": {
    "methods": {}
  },
  "userdoc": {
    "methods": {}
  }
}