{
  "contractName": "Items",
  "abi": [
    {
      "constant": true,
      "inputs": [
        {
          "name": "",
          "type": "uint256"
        }
      ],
      "name": "raisedItems",
      "outputs": [
        {
          "name": "id",
          "type": "uint256"
        },
        {
          "name": "resolved",
          "type": "bool"
        },
        {
          "name": "seller",
          "type": "string"
        },
        {
          "name": "customer",
          "type": "string"
        },
        {
          "name": "name_of_item",
          "type": "string"
        },
        {
          "name": "price",
          "type": "int256"
        },
        {
          "name": "quantity",
          "type": "int256"
        },
        {
          "name": "demand",
          "type": "bool"
        },
        {
          "name": "inbetween",
          "type": "bool"
        }
      ],
      "payable": false,
      "stateMutability": "view",
      "type": "function",
      "signature": "0x049f9ee4"
    },
    {
      "constant": true,
      "inputs": [],
      "name": "raisedItemsCount",
      "outputs": [
        {
          "name": "",
          "type": "uint256"
        }
      ],
      "payable": false,
      "stateMutability": "view",
      "type": "function",
      "signature": "0x4d783c77"
    },
    {
      "inputs": [],
      "payable": false,
      "stateMutability": "nonpayable",
      "type": "constructor",
      "signature": "constructor"
    },
    {
      "constant": false,
      "inputs": [
        {
          "name": "_seller",
          "type": "string"
        },
        {
          "name": "_name_of_item",
          "type": "string"
        },
        {
          "name": "_price",
          "type": "int256"
        },
        {
          "name": "_quantity",
          "type": "int256"
        }
      ],
      "name": "createHaveRequest",
      "outputs": [],
      "payable": false,
      "stateMutability": "nonpayable",
      "type": "function",
      "signature": "0x5ec140f9"
    },
    {
      "constant": false,
      "inputs": [
        {
          "name": "_raisedItemId",
          "type": "uint256"
        },
        {
          "name": "customer",
          "type": "string"
        }
      ],
      "name": "foundBuyer",
      "outputs": [],
      "payable": false,
      "stateMutability": "nonpayable",
      "type": "function",
      "signature": "0x4e978ba6"
    },
    {
      "constant": false,
      "inputs": [
        {
          "name": "_buyer",
          "type": "string"
        },
        {
          "name": "_name_of_item",
          "type": "string"
        },
        {
          "name": "_price",
          "type": "int256"
        },
        {
          "name": "_quantity",
          "type": "int256"
        }
      ],
      "name": "createNeedRequest",
      "outputs": [],
      "payable": false,
      "stateMutability": "nonpayable",
      "type": "function",
      "signature": "0xdb0e8bc1"
    },
    {
      "constant": false,
      "inputs": [
        {
          "name": "_raisedItemId",
          "type": "uint256"
        },
        {
          "name": "seller",
          "type": "string"
        }
      ],
      "name": "foundSeller",
      "outputs": [],
      "payable": false,
      "stateMutability": "nonpayable",
      "type": "function",
      "signature": "0xee461a68"
    },
    {
      "constant": false,
      "inputs": [
        {
          "name": "_raisedItemId",
          "type": "uint256"
        }
      ],
      "name": "resolveTransaction",
      "outputs": [],
      "payable": false,
      "stateMutability": "nonpayable",
      "type": "function",
      "signature": "0xdfd46f89"
    }
  ],
  "bytecode": "0x60806040523480156200001157600080fd5b50620000c3606060405190810160405280602a81526020017f307835613961304166343038303643303932326638303330393438353636356481526020017f64373335333263434562000000000000000000000000000000000000000000008152506040805190810160405280600881526020017f706f7461746f65730000000000000000000000000000000000000000000000008152506107d06064620002dd640100000000026401000000009004565b62000175606060405190810160405280602a81526020017f307835613961304166343038303643303932326638303330393438353636356481526020017f64373335333263434562000000000000000000000000000000000000000000008152506040805190810160405280600781526020017f63616262616765000000000000000000000000000000000000000000000000008152506175306103e8620002dd640100000000026401000000009004565b62000226606060405190810160405280602a81526020017f307835613961304166343038303643303932326638303330393438353636356481526020017f64373335333263434562000000000000000000000000000000000000000000008152506040805190810160405280600581526020017f6f6e696f6e0000000000000000000000000000000000000000000000000000008152506109c4603262000444640100000000026401000000009004565b620002d7606060405190810160405280602a81526020017f307835613961304166343038303643303932326638303330393438353636356481526020017f64373335333263434562000000000000000000000000000000000000000000008152506040805190810160405280600681526020017f62616e616e610000000000000000000000000000000000000000000000000000815250612710601e62000444640100000000026401000000009004565b6200065a565b600160008154809291906001019190505550610120604051908101604052806001548152602001600015158152602001858152602001602060405190810160405280600081525081526020018481526020018381526020018281526020016000151581526020016000151581525060008060015481526020019081526020016000206000820151816000015560208201518160010160006101000a81548160ff0219169083151502179055506040820151816002019080519060200190620003a7929190620005ab565b506060820151816003019080519060200190620003c6929190620005ab565b506080820151816004019080519060200190620003e5929190620005ab565b5060a0820151816005015560c0820151816006015560e08201518160070160006101000a81548160ff0219169083151502179055506101008201518160070160016101000a81548160ff02191690831515021790555090505050505050565b600160008154809291906001019190505550610120604051908101604052806001548152602001600015158152602001602060405190810160405280600081525081526020018581526020018481526020018381526020018281526020016001151581526020016000151581525060008060015481526020019081526020016000206000820151816000015560208201518160010160006101000a81548160ff02191690831515021790555060408201518160020190805190602001906200050e929190620005ab565b5060608201518160030190805190602001906200052d929190620005ab565b5060808201518160040190805190602001906200054c929190620005ab565b5060a0820151816005015560c0820151816006015560e08201518160070160006101000a81548160ff0219169083151502179055506101008201518160070160016101000a81548160ff02191690831515021790555090505050505050565b828054600181600116156101000203166002900490600052602060002090601f016020900481019282601f10620005ee57805160ff19168380011785556200061f565b828001600101855582156200061f579182015b828111156200061e57825182559160200191906001019062000601565b5b5090506200062e919062000632565b5090565b6200065791905b808211156200065357600081600090555060010162000639565b5090565b90565b61100e806200066a6000396000f3fe608060405260043610610083576000357c0100000000000000000000000000000000000000000000000000000000900463ffffffff168063049f9ee4146100885780634d783c771461024a5780634e978ba6146102755780635ec140f914610347578063db0e8bc1146104ba578063dfd46f891461062d578063ee461a6814610668575b600080fd5b34801561009457600080fd5b506100c1600480360360208110156100ab57600080fd5b810190808035906020019092919050505061073a565b604051808a815260200189151515158152602001806020018060200180602001888152602001878152602001861515151581526020018515151515815260200184810384528b818151815260200191508051906020019080838360005b8381101561013957808201518184015260208101905061011e565b50505050905090810190601f1680156101665780820380516001836020036101000a031916815260200191505b5084810383528a818151815260200191508051906020019080838360005b8381101561019f578082015181840152602081019050610184565b50505050905090810190601f1680156101cc5780820380516001836020036101000a031916815260200191505b50848103825289818151815260200191508051906020019080838360005b838110156102055780820151818401526020810190506101ea565b50505050905090810190601f1680156102325780820380516001836020036101000a031916815260200191505b509c5050505050505050505050505060405180910390f35b34801561025657600080fd5b5061025f610977565b6040518082815260200191505060405180910390f35b34801561028157600080fd5b506103456004803603604081101561029857600080fd5b8101908080359060200190929190803590602001906401000000008111156102bf57600080fd5b8201836020820111156102d157600080fd5b803590602001918460018302840111640100000000831117156102f357600080fd5b91908080601f016020809104026020016040519081016040528093929190818152602001838380828437600081840152601f19601f82011690508083019250505050505050919291929050505061097d565b005b34801561035357600080fd5b506104b86004803603608081101561036a57600080fd5b810190808035906020019064010000000081111561038757600080fd5b82018360208201111561039957600080fd5b803590602001918460018302840111640100000000831117156103bb57600080fd5b91908080601f016020809104026020016040519081016040528093929190818152602001838380828437600081840152601f19601f8201169050808301925050505050505091929192908035906020019064010000000081111561041e57600080fd5b82018360208201111561043057600080fd5b8035906020019184600183028401116401000000008311171561045257600080fd5b91908080601f016020809104026020016040519081016040528093929190818152602001838380828437600081840152601f19601f8201169050808301925050505050505091929192908035906020019092919080359060200190929190505050610a60565b005b3480156104c657600080fd5b5061062b600480360360808110156104dd57600080fd5b81019080803590602001906401000000008111156104fa57600080fd5b82018360208201111561050c57600080fd5b8035906020019184600183028401116401000000008311171561052e57600080fd5b91908080601f016020809104026020016040519081016040528093929190818152602001838380828437600081840152601f19601f8201169050808301925050505050505091929192908035906020019064010000000081111561059157600080fd5b8201836020820111156105a357600080fd5b803590602001918460018302840111640100000000831117156105c557600080fd5b91908080601f016020809104026020016040519081016040528093929190818152602001838380828437600081840152601f19601f8201169050808301925050505050505091929192908035906020019092919080359060200190929190505050610bc1565b005b34801561063957600080fd5b506106666004803603602081101561065057600080fd5b8101908080359060200190929190505050610d22565b005b34801561067457600080fd5b506107386004803603604081101561068b57600080fd5b8101908080359060200190929190803590602001906401000000008111156106b257600080fd5b8201836020820111156106c457600080fd5b803590602001918460018302840111640100000000831117156106e657600080fd5b91908080601f016020809104026020016040519081016040528093929190818152602001838380828437600081840152601f19601f820116905080830192505050505050509192919290505050610dda565b005b60006020528060005260406000206000915090508060000154908060010160009054906101000a900460ff1690806002018054600181600116156101000203166002900480601f0160208091040260200160405190810160405280929190818152602001828054600181600116156101000203166002900480156107ff5780601f106107d4576101008083540402835291602001916107ff565b820191906000526020600020905b8154815290600101906020018083116107e257829003601f168201915b505050505090806003018054600181600116156101000203166002900480601f01602080910402602001604051908101604052809291908181526020018280546001816001161561010002031660029004801561089d5780601f106108725761010080835404028352916020019161089d565b820191906000526020600020905b81548152906001019060200180831161088057829003601f168201915b505050505090806004018054600181600116156101000203166002900480601f01602080910402602001604051908101604052809291908181526020018280546001816001161561010002031660029004801561093b5780601f106109105761010080835404028352916020019161093b565b820191906000526020600020905b81548152906001019060200180831161091e57829003601f168201915b5050505050908060050154908060060154908060070160009054906101000a900460ff16908060070160019054906101000a900460ff16905089565b60015481565b6000151560008084815260200190815260200160002060010160009054906101000a900460ff1615151415156109b257600080fd5b6000151560008084815260200190815260200160002060070160019054906101000a900460ff1615151415156109e757600080fd5b6000821180156109f957506001548211155b1515610a0457600080fd5b600160008084815260200190815260200160002060070160016101000a81548160ff021916908315150217905550806000808481526020019081526020016000206003019080519060200190610a5b929190610ebd565b505050565b600160008154809291906001019190505550610120604051908101604052806001548152602001600015158152602001858152602001602060405190810160405280600081525081526020018481526020018381526020018281526020016000151581526020016000151581525060008060015481526020019081526020016000206000820151816000015560208201518160010160006101000a81548160ff0219169083151502179055506040820151816002019080519060200190610b28929190610f3d565b506060820151816003019080519060200190610b45929190610f3d565b506080820151816004019080519060200190610b62929190610f3d565b5060a0820151816005015560c0820151816006015560e08201518160070160006101000a81548160ff0219169083151502179055506101008201518160070160016101000a81548160ff02191690831515021790555090505050505050565b600160008154809291906001019190505550610120604051908101604052806001548152602001600015158152602001602060405190810160405280600081525081526020018581526020018481526020018381526020018281526020016001151581526020016000151581525060008060015481526020019081526020016000206000820151816000015560208201518160010160006101000a81548160ff0219169083151502179055506040820151816002019080519060200190610c89929190610f3d565b506060820151816003019080519060200190610ca6929190610f3d565b506080820151816004019080519060200190610cc3929190610f3d565b5060a0820151816005015560c0820151816006015560e08201518160070160006101000a81548160ff0219169083151502179055506101008201518160070160016101000a81548160ff02191690831515021790555090505050505050565b6000151560008083815260200190815260200160002060010160009054906101000a900460ff161515141515610d5757600080fd5b6001151560008083815260200190815260200160002060070160019054906101000a900460ff161515141515610d8c57600080fd5b600081118015610d9e57506001548111155b1515610da957600080fd5b600160008083815260200190815260200160002060010160006101000a81548160ff02191690831515021790555050565b6000151560008084815260200190815260200160002060010160009054906101000a900460ff161515141515610e0f57600080fd5b6000151560008084815260200190815260200160002060070160019054906101000a900460ff161515141515610e4457600080fd5b600082118015610e5657506001548211155b1515610e6157600080fd5b600160008084815260200190815260200160002060070160016101000a81548160ff021916908315150217905550806000808481526020019081526020016000206002019080519060200190610eb8929190610ebd565b505050565b828054600181600116156101000203166002900490600052602060002090601f016020900481019282601f10610efe57805160ff1916838001178555610f2c565b82800160010185558215610f2c579182015b82811115610f2b578251825591602001919060010190610f10565b5b509050610f399190610fbd565b5090565b828054600181600116156101000203166002900490600052602060002090601f016020900481019282601f10610f7e57805160ff1916838001178555610fac565b82800160010185558215610fac579182015b82811115610fab578251825591602001919060010190610f90565b5b509050610fb99190610fbd565b5090565b610fdf91905b80821115610fdb576000816000905550600101610fc3565b5090565b9056fea165627a7a723058209a27c50899ce906ee5c24636f6fa30c32b2b09e3b34ba2abd4567c8da9edcc9e0029",
  "source": "pragma solidity ^0.5.0;\n\ncontract Items {\n    // Model of a raiseGood\n    struct RaiseItem {\n        uint id;\n        bool resolved;\n        string seller;\n        string customer;\n        string name_of_item;\n        int price;\n        int quantity;\n        bool demand;\n        bool inbetween;\n    }\n\n    // Store RaiseItems\n    // Fetch RaiseItems\n    mapping(uint => RaiseItem) public raisedItems;\n\n    //Store raisedItems Count\n    uint public raisedItemsCount;\n\n    //Constructor\n    constructor() public {\n        createHaveRequest(\"0x5a9a0Af40806C0922f80309485665dd73532cCEb\", \"potatoes\", 2000, 100);\n        createHaveRequest(\"0x5a9a0Af40806C0922f80309485665dd73532cCEb\", \"cabbage\", 30000, 1000);\n        createNeedRequest(\"0x5a9a0Af40806C0922f80309485665dd73532cCEb\", \"onion\", 2500,50);\n        createNeedRequest(\"0x5a9a0Af40806C0922f80309485665dd73532cCEb\", \"banana\", 10000,30);\n    }\n\n    // This will create a request where the seller can say that he has\n    // x amount of good with him\n    function createHaveRequest(string memory _seller, string memory _name_of_item, int _price, int  _quantity) public {\n        raisedItemsCount ++;\n        raisedItems[raisedItemsCount] = RaiseItem(raisedItemsCount, false, _seller, \"\", _name_of_item, _price, _quantity, false, false);\n    }\n\n    // To confirm the deal will the seller\n    function foundBuyer(uint _raisedItemId, string memory customer) public {\n        // The transaction is not complete\n        require(raisedItems[_raisedItemId].resolved == false);\n        require(raisedItems[_raisedItemId].inbetween == false);\n        // The raisedItemId is valid\n        require(_raisedItemId > 0 && _raisedItemId <= raisedItemsCount);\n        raisedItems[_raisedItemId].inbetween = true;\n        raisedItems[_raisedItemId].customer = customer;\n    }\n\n    // A customer will raise a request if he need some good\n    function createNeedRequest(string memory _buyer, string memory _name_of_item, int _price, int _quantity) public {\n        raisedItemsCount ++;\n        raisedItems[raisedItemsCount] = RaiseItem(raisedItemsCount, false,\"\", _buyer, _name_of_item, _price, _quantity, true, false);\n    }\n\n    // A seller confirms the deal with a customer\n    function foundSeller(uint _raisedItemId, string memory seller) public {\n        // The transaction is not complete\n        require(raisedItems[_raisedItemId].resolved == false);\n        require(raisedItems[_raisedItemId].inbetween == false);\n\n        // The raisedItemId is valid\n        require(_raisedItemId > 0 && _raisedItemId <= raisedItemsCount);\n\n        raisedItems[_raisedItemId].inbetween = true;\n        raisedItems[_raisedItemId].seller = seller;        \n    }\n\n    function resolveTransaction(uint _raisedItemId) public {\n        require(raisedItems[_raisedItemId].resolved == false);\n        require(raisedItems[_raisedItemId].inbetween == true);\n\n        require(_raisedItemId > 0 && _raisedItemId <= raisedItemsCount);\n        raisedItems[_raisedItemId].resolved = true;\n    }\n}",
  "sourcePath": "/home/nitya/hackathon/contracts/Items.sol",
  "compiler": {
    "name": "solc",
    "version": "0.5.0+commit.1d4f565a.Emscripten.clang"
  },
  "schemaVersion": "3.0.6",
  "updatedAt": "2019-03-30T22:25:15.950Z",
  "devdoc": {
    "methods": {}
  },
  "userdoc": {
    "methods": {}
  }
}